{
  "_format": "hh-sol-artifact-1",
  "contractName": "Voting",
  "sourceName": "contracts/Voting.sol",
  "abi": [
    {
      "anonymous": false,
      "inputs": [
        {
          "indexed": true,
          "internalType": "address",
          "name": "voter",
          "type": "address"
        },
        {
          "indexed": false,
          "internalType": "string",
          "name": "option",
          "type": "string"
        }
      ],
      "name": "Voted",
      "type": "event"
    },
    {
      "inputs": [],
      "name": "getAllVotes",
      "outputs": [
        {
          "internalType": "uint256",
          "name": "votesA",
          "type": "uint256"
        },
        {
          "internalType": "uint256",
          "name": "votesB",
          "type": "uint256"
        }
      ],
      "stateMutability": "view",
      "type": "function"
    },
    {
      "inputs": [
        {
          "internalType": "string",
          "name": "option",
          "type": "string"
        }
      ],
      "name": "getVotes",
      "outputs": [
        {
          "internalType": "uint256",
          "name": "",
          "type": "uint256"
        }
      ],
      "stateMutability": "view",
      "type": "function"
    },
    {
      "inputs": [
        {
          "internalType": "address",
          "name": "",
          "type": "address"
        }
      ],
      "name": "hasVoted",
      "outputs": [
        {
          "internalType": "bool",
          "name": "",
          "type": "bool"
        }
      ],
      "stateMutability": "view",
      "type": "function"
    },
    {
      "inputs": [
        {
          "internalType": "uint256",
          "name": "",
          "type": "uint256"
        }
      ],
      "name": "options",
      "outputs": [
        {
          "internalType": "string",
          "name": "",
          "type": "string"
        }
      ],
      "stateMutability": "view",
      "type": "function"
    },
    {
      "inputs": [
        {
          "internalType": "string",
          "name": "option",
          "type": "string"
        }
      ],
      "name": "vote",
      "outputs": [],
      "stateMutability": "nonpayable",
      "type": "function"
    }
  ],
  "bytecode": "0x608060405260405180604001604052806040518060400160405280600181526020017f410000000000000000000000000000000000000000000000000000000000000081525081526020016040518060400160405280600181526020017f420000000000000000000000000000000000000000000000000000000000000081525081525060029060026100939291906100a6565b503480156100a057600080fd5b50610495565b82600281019282156100e1579160200282015b828111156100e05782518290816100d091906103c3565b50916020019190600101906100b9565b5b5090506100ee91906100f2565b5090565b5b8082111561011257600081816101099190610116565b506001016100f3565b5090565b508054610122906101dc565b6000825580601f106101345750610153565b601f0160209004906000526020600020908101906101529190610156565b5b50565b5b8082111561016f576000816000905550600101610157565b5090565b600081519050919050565b7f4e487b7100000000000000000000000000000000000000000000000000000000600052604160045260246000fd5b7f4e487b7100000000000000000000000000000000000000000000000000000000600052602260045260246000fd5b600060028204905060018216806101f457607f821691505b602082108103610207576102066101ad565b5b50919050565b60008190508160005260206000209050919050565b60006020601f8301049050919050565b600082821b905092915050565b60006008830261026f7fffffffffffffffffffffffffffffffffffffffffffffffffffffffffffffffff82610232565b6102798683610232565b95508019841693508086168417925050509392505050565b6000819050919050565b6000819050919050565b60006102c06102bb6102b684610291565b61029b565b610291565b9050919050565b6000819050919050565b6102da836102a5565b6102ee6102e6826102c7565b84845461023f565b825550505050565b600090565b6103036102f6565b61030e8184846102d1565b505050565b5b81811015610332576103276000826102fb565b600181019050610314565b5050565b601f821115610377576103488161020d565b61035184610222565b81016020851015610360578190505b61037461036c85610222565b830182610313565b50505b505050565b600082821c905092915050565b600061039a6000198460080261037c565b1980831691505092915050565b60006103b38383610389565b9150826002028217905092915050565b6103cc82610173565b67ffffffffffffffff8111156103e5576103e461017e565b5b6103ef82546101dc565b6103fa828285610336565b600060209050601f83116001811461042d576000841561041b578287015190505b61042585826103a7565b86555061048d565b601f19841661043b8661020d565b60005b828110156104635784890151825560018201915060208501945060208101905061043e565b86831015610480578489015161047c601f891682610389565b8355505b6001600288020188555050505b505050505050565b610baf806104a46000396000f3fe608060405234801561001057600080fd5b50600436106100575760003560e01c806309eef43e1461005c578063409e22051461008c578063805265e5146100bc578063851b6ef2146100ec578063fc36e15b1461010b575b600080fd5b6100766004803603810190610071919061056c565b610127565b60405161008391906105b4565b60405180910390f35b6100a660048036038101906100a19190610605565b610147565b6040516100b391906106c2565b60405180910390f35b6100d660048036038101906100d19190610819565b6101ea565b6040516100e39190610871565b60405180910390f35b6100f461025a565b60405161010292919061088c565b60405180910390f35b61012560048036038101906101209190610819565b61029f565b005b60016020528060005260406000206000915054906101000a900460ff1681565b6002816002811061015757600080fd5b016000915090508054610169906108e4565b80601f0160208091040260200160405190810160405280929190818152602001828054610195906108e4565b80156101e25780601f106101b7576101008083540402835291602001916101e2565b820191906000526020600020905b8154815290600101906020018083116101c557829003601f168201915b505050505081565b60006101f582610450565b610234576040517f08c379a000000000000000000000000000000000000000000000000000000000815260040161022b90610961565b60405180910390fd5b60008260405161024491906109bd565b9081526020016040518091039020549050919050565b600080600060405161026b90610a20565b9081526020016040518091039020549150600060405161028a90610a81565b90815260200160405180910390205490509091565b600160003373ffffffffffffffffffffffffffffffffffffffff1673ffffffffffffffffffffffffffffffffffffffff16815260200190815260200160002060009054906101000a900460ff161561032c576040517f08c379a000000000000000000000000000000000000000000000000000000000815260040161032390610ae2565b60405180910390fd5b61033581610450565b610374576040517f08c379a000000000000000000000000000000000000000000000000000000000815260040161036b90610961565b60405180910390fd5b60008160405161038491906109bd565b908152602001604051809103902060008154809291906103a390610b31565b919050555060018060003373ffffffffffffffffffffffffffffffffffffffff1673ffffffffffffffffffffffffffffffffffffffff16815260200190815260200160002060006101000a81548160ff0219169083151502179055503373ffffffffffffffffffffffffffffffffffffffff167fcb6783276e8a4347387036bbfea000268f0a4b1f8c46ac79980609f2af8d2acd8260405161044591906106c2565b60405180910390a250565b600060405160200161046190610a20565b604051602081830303815290604052805190602001208260405160200161048891906109bd565b6040516020818303038152906040528051906020012014806104f357506040516020016104b490610a81565b60405160208183030381529060405280519060200120826040516020016104db91906109bd565b60405160208183030381529060405280519060200120145b9050919050565b6000604051905090565b600080fd5b600080fd5b600073ffffffffffffffffffffffffffffffffffffffff82169050919050565b60006105398261050e565b9050919050565b6105498161052e565b811461055457600080fd5b50565b60008135905061056681610540565b92915050565b60006020828403121561058257610581610504565b5b600061059084828501610557565b91505092915050565b60008115159050919050565b6105ae81610599565b82525050565b60006020820190506105c960008301846105a5565b92915050565b6000819050919050565b6105e2816105cf565b81146105ed57600080fd5b50565b6000813590506105ff816105d9565b92915050565b60006020828403121561061b5761061a610504565b5b6000610629848285016105f0565b91505092915050565b600081519050919050565b600082825260208201905092915050565b60005b8381101561066c578082015181840152602081019050610651565b60008484015250505050565b6000601f19601f8301169050919050565b600061069482610632565b61069e818561063d565b93506106ae81856020860161064e565b6106b781610678565b840191505092915050565b600060208201905081810360008301526106dc8184610689565b905092915050565b600080fd5b600080fd5b7f4e487b7100000000000000000000000000000000000000000000000000000000600052604160045260246000fd5b61072682610678565b810181811067ffffffffffffffff82111715610745576107446106ee565b5b80604052505050565b60006107586104fa565b9050610764828261071d565b919050565b600067ffffffffffffffff821115610784576107836106ee565b5b61078d82610678565b9050602081019050919050565b82818337600083830152505050565b60006107bc6107b784610769565b61074e565b9050828152602081018484840111156107d8576107d76106e9565b5b6107e384828561079a565b509392505050565b600082601f830112610800576107ff6106e4565b5b81356108108482602086016107a9565b91505092915050565b60006020828403121561082f5761082e610504565b5b600082013567ffffffffffffffff81111561084d5761084c610509565b5b610859848285016107eb565b91505092915050565b61086b816105cf565b82525050565b60006020820190506108866000830184610862565b92915050565b60006040820190506108a16000830185610862565b6108ae6020830184610862565b9392505050565b7f4e487b7100000000000000000000000000000000000000000000000000000000600052602260045260246000fd5b600060028204905060018216806108fc57607f821691505b60208210810361090f5761090e6108b5565b5b50919050565b7f496e76616c6964206f7074696f6e000000000000000000000000000000000000600082015250565b600061094b600e8361063d565b915061095682610915565b602082019050919050565b6000602082019050818103600083015261097a8161093e565b9050919050565b600081905092915050565b600061099782610632565b6109a18185610981565b93506109b181856020860161064e565b80840191505092915050565b60006109c9828461098c565b915081905092915050565b7f4100000000000000000000000000000000000000000000000000000000000000600082015250565b6000610a0a600183610981565b9150610a15826109d4565b600182019050919050565b6000610a2b826109fd565b9150819050919050565b7f4200000000000000000000000000000000000000000000000000000000000000600082015250565b6000610a6b600183610981565b9150610a7682610a35565b600182019050919050565b6000610a8c82610a5e565b9150819050919050565b7f416c726561647920766f74656400000000000000000000000000000000000000600082015250565b6000610acc600d8361063d565b9150610ad782610a96565b602082019050919050565b60006020820190508181036000830152610afb81610abf565b9050919050565b7f4e487b7100000000000000000000000000000000000000000000000000000000600052601160045260246000fd5b6000610b3c826105cf565b91507fffffffffffffffffffffffffffffffffffffffffffffffffffffffffffffffff8203610b6e57610b6d610b02565b5b60018201905091905056fea2646970667358221220cae57e480792238197c4b173176cb92f8ffa04c11ce152efcd941edc610293d164736f6c634300081c0033",
  "linkReferences": {},
  "deployedLinkReferences": {}
}